:020000040800F2
:10000000B8060020C13000082D2E00082F2E000851
:10001000312E0008332E0008352E000800000000A5
:10002000000000000000000000000000372E000863
:10003000392E0008000000003B2E00083D2E00086D
:10004000D9300008DD300008E1300008E530000854
:10005000E9300008ED300008F1300008F530000804
:10006000F9300008FD30000801310008412E000879
:1000700005310008093100080D3100081131000870
:100080001531000819310008472E00084D2E0008D0
:100090004F2E0008D12E0008D92E00081D3100086F
:1000A0002131000825310008293100082D310008D0
:1000B00031310008DB2E00083531000839310008E5
:1000C0003D31000841310008453100084931000840
:1000D0004D310008532F0008592F00085F2F0008EA
:1000E0005131000855310008593100085D310008D0
:1000F0006131000865310008693100086D31000880
:100100007131000875310008793100087D3100082F
:100110008131000885310008893100088D310008DF
:100120009131000895310008993100089D3100088F
:1001300038B5040001D1012032BD00F01BF808B928
:1001400000F01CF800F01FF800F027F8FFE741610D
:1001500000F001F832BD2068C16841F40051C1606F
:1001600000206860202169702020A8700021616350
:100170000020704704F1400568787047002129701D
:10018000204600F099BA242068702068C16821F4E4
:100190000051C160204600F023BA2068016921F4B3
:1001A000904101612068416921F02A01704721686E
:1001B00001F1140252E8001F206800F1140321F03D
:1001C000400143E8001000287047F8B50446256850
:1001D0002A6828460146C6684B6912F00F0F02F0E4
:1001E000200106F0200007D1002918BF00285DD0AB
:1001F0002046BDE8F2408BE1DF0702D416F4907F81
:1002000054D0D50705D5F60503D5656C45F0010535
:100210006564550705D5DE0703D5656C45F0020515
:100220006564950705D5DE0703D5656C45F00405C3
:100230006564120706D508B9DA0703D5636C43F085
:1002400008036364626C002A2FD000291EBF0028B7
:10025000204600F05DF920684069616C0A0701D40E
:1002600040061DD5204600F02FF920684169480658
:1002700011D5FFF79CFFFCD1E06B60B10FF281213B
:100280004163E06B00F035FB00280ED0E06B416B62
:10029000BDE8F44008472046BDE8F24000F098BCB5
:1002A000204600F095FC00206064F1BD206B012821
:1002B00004F1410340F09180D00600D5F10640F1F1
:1002C0008C8000220092296800912268506800907A
:1002D000009920684269500642D5E16B0868406881
:1002E00080B20028E1D0A28D9042DEDAE0858869F4
:1002F00020282DD0216801F10C0050E8001F226851
:1003000002F10C0521F4807145E800100028F1D1BC
:1003100000F0A2F8490800F11405490045E8001072
:100320000028F5D100F098F800F1140521F0400103
:1003300045E800100028F5D12020587000212163E5
:1003400000F090F800F0ACF8FAD1E06B00F0ACFAF5
:1003500002206063A18DE08D091A89B2204638E041
:10036000A08DE18D411AE08D00281CBF88B20028C5
:1003700071D02246106800F10C0454E8004F00F1DF
:100380000C0624F4907446E800400028F2D110686E
:1003900000F1140454E8004F640800F114066400EE
:1003A00046E800400028F2D1202058700023136353
:1003B000106800F10C0353E8003F00F10C0523F036
:1003C000100345E800300028F2D10220506389B2C2
:1003D0001046BDE8F44000F0FCBB10062BD53106FA
:1003E00029D51878212836D1A068B0F5805F04BFE0
:1003F0002069002809D1206A01882A46C1F3080132
:100400005160206A811C216205E0206A411C216242
:10041000226800785060E08C401EE08480B2D0B941
:100420002068C16821F08001C1602068C16841F086
:100430004001C160F1BD50060DD571060BD52846AF
:10044000C16821F04001C160204620211970BDE83B
:10045000F24000F0BFBBF1BD206800F1140151E88B
:10046000001F7047206800F10C0151E8001F00F1E7
:100470000C037047026802F10C0151E8002F036879
:1004800003F10C047047016801F1140252E8002FD7
:10049000520801F11404520044E800210029704779
:1004A00021F0100143E800100028704742F040029C
:1004B00044E8002100297047016801F10C0252E86C
:1004C000002F01F10C04704710B5FFF7F5FF22F47F
:1004D0009072FFF7EDFFF8D1FFF7D5FFFCD1016B6C
:1004E000012906D1FFF7C6FF22F01002FFF7E0FF57
:1004F000F8D1202180F842100022026310BD0000D4
:10050000406A0021C1850022C28400F061BB000066
:100510001CB590F84210222952D18168826AB1F547
:10052000805F0AD1016969B903685968C1F308019C
:100530001180826A911C81620FE0002904BF016969
:10054000002902D10368596803E00168496801F095
:100550007F011170816A4A1C8262C18D491EC1856A
:1005600089B259BB0168CA6822F02002CA600168DA
:10057000CA6822F48072CA6001684A69520852004F
:100580004A61202180F8421000224263016B012958
:1005900012D1026300F016F802681168CB0607D585
:1005A0000024009412680092036859680091009A30
:1005B000818D00F00EFB01E000F00DFB002016BD68
:1005C000022016BD016801F10C0252E8002F01F172
:1005D0000C0422F0100244E800210029F2D17047F7
:1005E00010B5044622681169E06821F440510143C6
:1005F0001161D3681949A0680B4021690343606900
:100600000B430343D3605169A06921F44071014356
:10061000516113498A4202D100F011FD01E000F05E
:1006200006FD6268192148439200B0FBF2F1642391
:10063000B1FBF3F26FF0630000FB021109013231EC
:10064000B1FBF3F000F0F00101EB0211226800F0C1
:100650000F004018906010BD00000000F3E9FFFF9C
:100660000038014080B56448644900F00BF800B1DF
:1006700016E001BD80B56248624900F003F800B1A0
:100680000EE001BD01604FF4E13200230C21426015
:100690008360C360036141618361C361FFF748BD4B
:1006A000BDE8014000F084BD80B557485749FFF7C9
:1006B000E9FF00B1F4E701BD30B585B00446102272
:1006C0000021684600F076FD21684C4A504891426E
:1006D0004FF4806427D101684E4D41F480410160A0
:1006E000026802F4804204920499026842F0040213
:1006F00002604FF40071006800F0040000F06CF834
:100700002846694600F060FD0021019102910094A5
:100710006946284600F058FD00220621252000F0F9
:100720006FFE252054E0374A914228D141683A4C67
:1007300041F400314160416801F4003104910499B1
:10074000026842F0200202602021006800F02000D0
:1007500000F042F82046694600F036FD402000F0E7
:1007600043F82E48016841F0E06141F00801016062
:1007700000220621262000F043FE262028E0234AFE
:10078000914227D1416841F480214160416801F4E0
:10079000802104910499026842F00802026002225A
:1007A000036803F008030493049900940321039160
:1007B000019269461A4C204600F006FD4FF4006095
:1007C00000F012F800220621272000F019FE272051
:1007D00000F033FE05B030BD049002220498009171
:1007E0000192032103917047002100900191029131
:1007F0002046694600F0E8BCB00000200038014007
:10080000F800002000440040400100200048004063
:10081000181002400008014000140140040001408B
:10082000000C014030B508B9012030BD0268DFF886
:100830005C43A24200F138030BD2DFF854138A184C
:100840001425B2FBF5F29200DFF848439A605C6031
:100850000AE0DFF844138A181424B2FBF4F2920081
:10086000DFF838139A605960022280F8212001686D
:100870000C684168826805686FF30D140C43C16809
:10088000144302690C434169144382690C43C169F2
:1008900014430C432C6000221A60012380F821309D
:1008A00080F82020002030BD10B590F821100229DA
:1008B00000F1380206D004231360002180F82010D4
:1008C000012010BD01680B6823F00E030B600123AB
:1008D00001680C68640864000C60916852688B4081
:1008E0005360012180F82110002280F82020002090
:1008F00010BDF8B590F821200024022A00F134013F
:1009000003D00420486001245FE00268DFF89062B1
:10091000136823F00E0313604FF4807702681568A4
:100920006D086D0015604FF480320368B3424FF4D8
:10093000805519D9DFF85462B34208BF012210D0A4
:10094000DFF86062B34208BF10220AD0DFF85862B5
:10095000B34208BF3A4604D0DFF85072BB4208BF2A
:100960002A46DFF84C3227E0DFF848C263451CD046
:10097000DFF844E273451AD0DFF840C2634518D06F
:10098000DFF83C72BB420EBF2A46DFF83852AB425A
:1009900010D0DFF83472BB4208BF4FF4801209D088
:1009A000B34207D14FF0807204E0012202E010222E
:1009B00000E03A46DFF814321A60012280F8212064
:1009C00080F82040096801B188472046F2BD2DE932
:1009D000F84F00F1280204275169714E0B68046832
:1009E000DFF8D0B125689169DFF8C4C1DFF8BCE158
:1009F000DFF8B481DFF8AC91DFF890A18DF800103A
:100A00009DF800108F403B424AD0690748D52368C3
:100A1000990603D4236823F0040323604FF4802352
:100A20000168B1424FF480444FF4806511D95145BB
:100A300008BF04230AD0494508BF402306D04145DA
:100A400008BF2B4602D0714508BF2346CCF80030C2
:100A500020E0594517D0584FB94216D0574FB942E8
:100A600015D0574DA9420EBF2346564CA1420FD078
:100A7000554DA94208BF4FF4800309D0B14207D1B8
:100A80004FF0806304E0042302E0402300E02B46A3
:100A90004E490B605168002976D0BDE8F44F0847F5
:100AA0009DF8001002278F403B424FD0A9074DD53B
:100AB0002368990606D4236823F00A0323600121E2
:100AC00080F821104FF400330168B1424FF4005414
:100AD0004FF4007511D9514508BF02230AD049458A
:100AE00008BF202306D0414508BF2B4602D07145E0
:100AF00008BF2346CCF8003020E0594517D02E4FD0
:100B0000B94216D02D4FB94215D02D4DA9420EBF76
:100B100023462C4CA1420FD02B4DA94208BF4FF4C5
:100B2000001309D0B14207D14FF0007304E0022353
:100B300002E0202300E02B4624490B60002380F8CC
:100B40002030116801B3BDE8F44F08479DF800104C
:100B500008268E40334217D0290715D5236823F085
:100B60000E0323600124916953698C405C6001216C
:100B70001161012380F82130002180F82010916854
:100B800011B1BDE8F44F0847BDE8F18F08040240F9
:100B9000F8FFFDBF00000240F8FBFDBF000402406B
:100BA000800002401C040240300402404404024021
:100BB00004040240080002401C00024030000240D1
:100BC00044000240580002406C0002400400024011
:100BD00070477047704770472DE9F843040016D0FE
:100BE0002078DFF87064C10713D5706800F00C003E
:100BF000042807D0706800F00C00082841D1706804
:100C0000C1033ED53068810303D56068002800F039
:100C100064812078DFF84C74810719D5706810F072
:100C20000C0F07D0706800F00C00082861D17068C4
:100C3000C1035ED43068810703D52069012840F0E4
:100C40004C813168606921F0F80141EAC0013160EE
:100C50002178080740F18180A069DFF80C14002892
:100C600000F0A68001220A6000F012FC0546706ABE
:100C7000810763D400F00CFC401B0228F7D9032045
:100C80002EE16068B0F5803F04D1306840F48030D8
:100C9000306014E008B930680AE0B0F5A02F306881
:100CA00006D140F480203060316841F4803105E0A5
:100CB00020F480303060316821F480213160606838
:100CC00058B100F0E5FB054630688103A1D400F07F
:100CD000DFFB401B6528F7D3D1E700F0D9FB0546C1
:100CE0003068810395D500F0D3FB401B6528F7D30E
:100CF000C5E72069A8B10121396000F0C9FB0546AC
:100D00003068810705D400F0C3FB401B0228F7D9E7
:100D1000B5E73068616920F0F80040EAC100306052
:100D200096E7386000F0B4FB0546316888078FD538
:100D300000F0AEFB401B0228F7D9A0E7DFF818034C
:100D40000168C9084FF47A72B1FBF2F2009200BF59
:100D50000098411E00280091F9D1207841076ED5F6
:100D6000F0690025C10009D4F06940F08050F061BD
:100D70000125F06900F0805000900098DFF8EC82C7
:100D8000D8F80000C10520D4D8F8000040F48070E5
:100D9000C8F8000000F07CFB8146D8F80000C105CF
:100DA00013D400F075FBA0EB09006528F5D366E7C6
:100DB000086000F06DFB0546706A8107CDD500F034
:100DC00067FB401B0228F7D959E7E068012808D0E3
:100DD00008B9306A09E00528306A06D140F00400FD
:100DE0003062306A40F0010005E0400840003062A7
:100DF000306A20F00400306241F28938E06860B166
:100E000000F046FB8146306A810713D400F040FBB6
:100E1000A0EB09004045F6D331E700F039FB8146ED
:100E2000306A810706D500F033FBA0EB090040458E
:100E3000F6D324E71DB1F06920F08050F061E0693D
:100E400000284CD0716801F00C01082938D0022824
:100E50002AD100F047F805463068810105D500F039
:100E600017FB401B0228F7D909E7206AB0F5803F3D
:100E700005D17168A06821F4003101437160726886
:100E8000206A616A22F4741202430A4372600120EC
:100E900000F029F804463068810120D400F0F8FA07
:100EA000001B0228F7D9EAE600F01CF80446306877
:100EB000810114D500F0ECFA001B0228F7D9DEE618
:100EC00001280AD07068226A00F48031914202BF82
:100ED00000F47010616A884201D0012000E0002017
:100EE000BDE8F2830020386600F0D2BA2DE9F04167
:100EF000040088464ED05E4E00F077F802D200F033
:100F00006FF847D12068534D810712D5400703D5AC
:100F1000696841F4E06169602078010703D5686879
:100F200040F4605068606968A06821F0F0010143F6
:100F300069602178C80725D56068012802D1296831
:100F40008A0303E00228296802D18A0102D421E041
:100F50008A071FD56968890840EA8100686000F047
:100F600097FA07466868616800F00C00B0EB810FE3
:100F700008D000F08DFAC01B41F289318842F1D3CC
:100F800003202BE0306800F00700804504D200F019
:100F900027F801D0012021E02078410705D56A68B3
:100FA000E06822F4E06202436A602178080706D50F
:100FB0006968206921F4605141EAC001696000F06C
:100FC00019F86A682B49244BC2F30312895CC840A4
:100FD00018602348006800F061FA0020BDE8F08145
:100FE0003168C90848EAC1013160306800F0070083
:100FF00040457047204919480A6802F00C03082B45
:1010000000D0704710B500BF1EA4C2F38343D203C3
:10101000E35C08D5096858431EA3C1F340415A5CFC
:10102000B0FBF2F010BD18461449484310BD0A4801
:10103000114A006813681249C3F3022206E0064809
:101040000D4A006813680E49C3F3C222895CC84088
:1010500070470000001002400C00002000127A00CF
:10106000080000200000424280044242007000401C
:10107000002002409C3000080410024000093D009E
:10108000D030000802030405060708090A0B0C0DFE
:101090000E0F101001020EE002684368024408308F
:1010A0005FEAC37C44BF4B445B1E52F804CB43F859
:1010B00004CB091FF9D150F8041B0029ECD170476B
:1010C00010B500F00BFA00F033F800F019FA00F058
:1010D000D5FA00F0EBFA00F0B1FBFFF7E5FA00F00B
:1010E00029FC00F07FFCFFF7BDFAFFF7C3FA0E48BA
:1010F0000E4C00F0D8FC00202070022000F0AAFE68
:10110000012000F0A7FE1E2000F016FF2078401CF2
:10111000C1B20A29F0DB207000F022FF00F0BAFF14
:1011200001F046F8F8E7000068000020B502002052
:1011300000B595B0282105A801F06AF81421684689
:1011400001F066F818210FA801F062F84FF4803121
:101150000022069107920D9101200590099002222C
:101160004FF4E0110C920E9105A8FFF735FD08B180
:1011700000F01EF8022101910F204FF480610090D1
:10118000002203910292049202216846FFF7AEFE0C
:1011900008B172B6FEE702214FF400420F9111929E
:1011A0000FA801F039F808B172B6FEE715B000BD1E
:1011B00072B6FEE710B5044610460A4601462046C0
:1011C00001F09EF8204610BD2DE9F8474FF0000EC3
:1011D00000246F4A6F4BDFF8C0814FF00F09824641
:1011E0000DE017683840106007E0C2F804C04D6891
:1011F000ED03F6D51068074317600EF1010E0F6876
:1012000037FA0EF000F0B680012000FA0EFC0CEA6E
:1012100007076745F1D1486838B301281AD002287A
:101220001DD003282ED0112816D012281AD05B4DBD
:10123000A8421CBF5A4DA84217D05A4DA8421CBF05
:10124000594DA84211D0594DA8421CBF584DA84233
:101250000BD018E0CC6816E0CC68241D13E0CC68F5
:10126000083410E0CC680C340DE0886808B9042418
:1012700009E0012819BF0824CAF814C00824CAF8D4
:1012800010C000E00024B7F5807F03D250464FEA3B
:101290008E0C05E0AEF108050AF104004FEA850C5A
:1012A000056809FA0CF6B54304FA0CF646EA050C93
:1012B000C0F800C04868C0009FD5D8F8000040F0D2
:1012C0000100C8F80000D8F8005005F001050095AD
:1012D0004FEA8E0500984FEA9E0053F8206005F013
:1012E0000C0C09FA0CF526EA0505324EB24508BF8A
:1012F000002618D0304EB24508BF012613D02F4E1D
:10130000B24508BF02260ED02D4EB24508BF0326B7
:1013100009D02C4EB24508BF042604D02A4EB2454F
:101320000CBF0526062606FA0CF646EA050C43F81D
:1013300020C0F8434D68D2F808C0ED024CBF47EA20
:101340000C0C00EA0C0CC2F808C04D68D2F80CC0B6
:10135000AD024CBF47EA0C0C00EA0C0CC2F80CC002
:101360004D68D2F804C0AD034CBF47EA0C0C00EA4C
:101370000C0C3AE7BDE8F18702B909040161704736
:10138000C26801EA0203914341EA034101617047E7
:101390000004014008000140181002400000111034
:1013A0000000121000002110000022100000311077
:1013B0000000321000080140000C01400010014004
:1013C0000014014000180140001C01400901020006
:1013D00002D4294881547047284B02F00F021A4466
:1013E00002F8041C7047264B19684FF6FF020002F2
:1013F000114000F4E0600843224908431860704738
:1014000070B51F4B1C68C4F302230124C3F1070508
:10141000052D2EBF0F2504FA05F56D1E1E1D072E86
:1014200034BF0023DB1E2940994004FA03F3BDE8D2
:1014300070405B1E1A401143C8E7010007D4012227
:1014400000F01F01104B8A40400943F820207047EC
:1014500010B5401EB0F1807F01D3012010BD0B4CB0
:1014600060600F214FF0FF30FFF7B0FF0021A16057
:1014700007202060002010BD00E400E018ED00E02F
:101480000CED00E00000FA0500E100E010E000E0F3
:1014900001484068704700BF0000002038B50D4D7E
:1014A0000D4B2A7804464FF47A711868B1FBF2F2BA
:1014B000B0FBF2F0FFF7CCFF50B9102C08D200229D
:1014C00021464FF0FF30FFF79BFFAC60002032BD9C
:1014D000012032BD000000200C00002080B507482C
:1014E000016841F0100101600320FFF77CFF0F202D
:1014F000FFF7D4FF00F038FF002002BD00200240BB
:101500002DE9F84785B0102200216846FFF752FE0A
:101510004848494D0168494EDFF82481DFF824919D
:10152000DFF824A141F04001016048F2C0040268E4
:1015300002F04002049240F283370499026842F0BC
:1015400010020260036803F0100304930499026818
:1015500042F004020260036803F004030493049958
:10156000026842F008020260036803F00803049373
:101570000499026842F0200202600022006800F034
:1015800020000490214604982846FFF7F5FE00222B
:101590004FF44C713046FFF7EFFE00220321404626
:1015A000FFF7EAFE002239464846FFF7E5FE002233
:1015B0004FF4BC415046FFF7DFFE782000F059F8A9
:1015C000484600F043F80C2000F053F8304600F095
:1015D0003DF800F03EF8009469462846FFF7F4FD18
:1015E0004FF44C7100F03CF83046FFF7EDFD03215D
:1015F00000F036F84046FFF7E7FD009700F029F8C5
:1016000069464846FFF7E0FD4FF4BC4100F028F87A
:101610005046FFF7D9FD802000F02BF8504600F02F
:1016200015F8702000F025F8404600F00FF806B0DD
:10163000BDE8F0871810024000080140001001408A
:10164000000C014000180140001401406946FFF7FA
:10165000BBBD01200221019000220391029270473C
:101660000091012201920021029102220392694617
:1016700070470021009001910291704780B50A489F
:10168000016841F0010101600022006800F00100E2
:101690000090002100980B20FFF7B2FEBDE8024049
:1016A0000B20FFF7CABE00BF141002401FB50C226A
:1016B00000216846FFF77EFD4FF48071584C594871
:1016C000A16020604FF46021E161002207212273B4
:1016D000227562602161204600F068FE08B1FFF7C4
:1016E00067FD0020012100900191022202926946CB
:1016F000204600F05CFF08B1FFF75AFD0121009180
:10170000022200F02CF808B1FFF752FD02210091EF
:10171000032200F024F808B1FFF74AFD03210091ED
:10172000042200F01CF808B1FFF742FD04210091EB
:10173000052200F014F808B1FFF73AFD05210091E9
:10174000062200F00CF808B1FFF732FD0B210091E2
:10175000072200F004F808B1FFF72AFD1FBD01922F
:101760006946204600F023BF30B585B004461022FC
:10177000002101A8FFF71EFD21682A4881424DD1B2
:1017800029482A4D016841F400710160026802F4A1
:10179000007200920099026842F010020260036831
:1017A00003F01003009303230099026842F004023F
:1017B00002600222006800F004000090009901928B
:1017C000029301A91A48FFF7FFFC3F210191032270
:1017D000029201A91748FFF7F7FC1748286000217B
:1017E00069608020E8604FF4007129614FF4006067
:1017F000002268612021AA60A961EA612846FFF7FA
:1018000011F808B1FFF7D4FC25626C6200220521B3
:101810001220FFF7F5FD1220FFF70FFE05B030BDD7
:10182000CC01002000240140181002408801002053
:1018300000100140000801400800024080B539480E
:101840003949016008224FF4800142604161002360
:101850004FF4003201218360C36002610376417658
:101860008376C176838300F057FF18B1BDE801404D
:10187000FFF79EBC01BD18B585B0044610220021BB
:101880006846FFF797FC21682748814248D12748DE
:10189000274C416841F000714160416801F00071DE
:1018A00004910499026842F0040202604FF400615E
:1018B000006800F004000490002204980091019256
:1018C000029269462046FFF77FFC4FF480500221C8
:1018D000009001910322039269462046FFF774FCB1
:1018E00000220F211320FFF78BFD1320FFF7A5FD2A
:1018F00000220F211420FFF783FD1420FFF79DFD28
:10190000002205211520FFF77BFD1520FFF795FD2F
:10191000002205211620FFF773FD1620FFF78DFD2D
:1019200006B010BD2C0200200064004018100240D8
:1019300000080140254A2648264980B54260002318
:101940004FF4804201608360C36002614361836140
:10195000C361036201F052F918B1BDE80140FFF71D
:1019600027BC01BD18B585B004461022002101A88E
:10197000FFF720FC21681748814224D1164C2168CA
:1019800041F0080121604FF44071206800F0080028
:1019900000901222009811480191029203210491B3
:1019A00001A9FFF711FC0E48016841F0E06141F028
:1019B00002010160606840F400106060606800F43B
:1019C00000100090009806B010BD0000A086010035
:1019D000140000200054004018100240000C014088
:1019E0000400014010B586B01022002102A8FFF7C4
:1019F000E1FB082200216846FFF7DCFB204C214870
:101A00002060472140F2E7300022E0606160A26080
:101A10002261A261204600F039F808B1FFF7C8FB47
:101A20004FF48050029002A9204600F035F908B129
:101A3000FFF7BEFB0021009101912046694601F0AD
:101A400087F908B1FFF7B4FB06B010BD00680D4977
:101A5000884200D0704780B50B48026842F002020D
:101A600002600022006800F002000090032100984C
:101A70001D20FFF7C5FCBDE802401D20FFF7DDBCBF
:101A800068000020000400401C10024038B504002B
:101A900001D1012032BD00F057F818B900F05AF911
:101AA000FFF7D4FF32E090F83D10012901D001206A
:101AB0007047022180F83D100168CA6842F00102B7
:101AC000CA600168DFF86C2091421CBFDFF8683003
:101AD00099420ED0B1F1804F1CBFDFF860209142D7
:101AE00007D0DFF85C3099421CBFDFF858209142E4
:101AF00005D1896801F00701062905D001680A6847
:101B0000084642F00102026000207047022068701F
:101B1000211D206800F022F90120A8720121A9707E
:101B2000E87029716871A971E87129726872697029
:101B3000002032BD002C0140003401400004004070
:101B400000080040000C004004F13C056878704734
:101B500010B50446206801698A0715D5C1688A074F
:101B600012D56FF00201016101222277806910F025
:101B7000030F204602D001F027F903E001F025F918
:101B800000F087F800202077206801694A0715D502
:101B9000C1684A0712D56FF0040101610222227761
:101BA000806910F4407F204602D001F00DF903E077
:101BB00001F00BF900F06DF8002020772068016932
:101BC0000A0715D5C1680A0712D56FF0080101612F
:101BD00004222277C06910F0030F204602D001F0E2
:101BE000F3F803E001F0F1F800F053F8002020775B
:101BF00020680169CA0615D5C168CA0612D56FF0FA
:101C00001001016108222277C06910F4407F20464C
:101C100002D001F0D9F803E001F0D7F800F039F86C
:101C20000020207720680169CA0708D5C168CA0763
:101C300005D56FF001010161204601F0C7F8206869
:101C400001690A0608D5C1680A0605D56FF080014A
:101C50000161204601F0BBF8206801694A0608D5F9
:101C6000C1684A0605D56FF040010161204601F0C8
:101C7000AFF8206801698A060AD5C1688A0607D5C7
:101C80006FF0200101612046BDE8104001F0A1B8CD
:101C900010BD204601F09EB870B5064606F13C0521
:101CA00000242878012801D1022070BD012028706D
:101CB00002226A70DFF8180132689368034093606B
:101CC0000868020018BF102830D0202818BF30281C
:101CD0002CD0402826D0502819D060281BD070283E
:101CE00006D0B0F5805F27D0B0F5005F07D022E0C6
:101CF00000F02BF83068816841F0770105E000F0D2
:101D000024F83068816841F48041816014E000F07B
:101D100018F850210BE0CA684968306800F073F881
:101D2000602104E000F00DF8402100E00146306839
:101D300000F07BF800E001240120687000F00AF850
:101D400070BDCA68496830684EE0CB684A688968E7
:101D5000306872E00021297020467047F0B50368B2
:101D6000DFF870C01C4C1D4D1D4E1E4F604518BF46
:101D7000B84208D0B0F1804F18BFB04203D0A8429B
:101D800018BFA0420DD14A6823F070031343604589
:101D900018BFB84207D0B0F1804F1CBFB042A84274
:101DA00001D0A04203D1CA6823F4407313434A69A7
:101DB00023F080031343036060458B68C3620A68A5
:101DC000826212BFB8420969016301224261F0BD1B
:101DD0008800FFFF002C0140000C0040000800407C
:101DE000000400400034014010B5036A046A64082E
:101DF0006400046223F00A03846924F0F00444EAD6
:101E00000214846123E010B5036A046A24F010040C
:101E1000046223F0A003846924F4704444EA023489
:101E2000846143EA0113036210BD826822F07002EC
:101E3000114341F007018160704710B5846824F4B4
:101E40007F442143114341EA0321816010BD1943BE
:101E5000016210BD70B5304A304C1368014601294B
:101E60002F4802D0022910D02CE0190652D42D4A56
:101E70001188E17240F28712090A217303230021BD
:101E800061732260A37221813AE0190642D4264A86
:101E90001188E1720022090A2173E2810121617334
:101EA000224A1178012908BFA17303D0022904BF77
:101EB0000121E17340F22332052100232260A17247
:101EC00023811DE0990454BF43F4005323F40053CD
:101ED000190A5D06E372217307D515490E78062E9F
:101EE00003DB217B01F0BF01217340F237761149FA
:101EF0000D786573032100252660A172258113608A
:101F000004F1140304F10B0204F11801BDE8704060
:101F100000F094BC70BD00BF90020020FC010020C6
:101F20002C020020AE0200209E0200209C02002015
:101F3000B4020020B602002038B50446FFF7A8FA24
:101F400014F1010F054602D0044908780419FFF77F
:101F50009FFA401BA042FAD331BD00BF0000002011
:101F600013490A88530703D54FF6FB7002400A80D5
:101F70000A88930603D54FF6DF7002400A8009787D
:101F8000480648BF00F001B8704710B5074C022161
:101F90002046FFF7F5F901212046FFF7F1F9044942
:101FA0000A884FF6BF7002400A8010BD0018014039
:101FB000A40200202DE9F0413748384C016825681B
:101FC000374EC1F3C307380025F4403821D000F064
:101FD00055F8F0B1B1888F4215D1F08800BB7188F7
:101FE00025F4003545F480358F4208BF45F40035AF
:101FF00025601E202B4A7780F08064211180378075
:1020000000F011F80CE03C20B780F080C4F80080AC
:1020100006E0C4F8008000273C20B7807780F0807D
:102020003780BDE8F081F0B51D4A1C4852881E4B30
:102030000124022501681B68D60704D51F060BD4AE
:1020400064F3010108E0960704D51F0604D465F384
:10205000010101E089088900560704D51A060BD44E
:1020600064F3830108E0120704D51B0604D465F36A
:10207000830101E021F00C010160F0BD00F00301DB
:1020800003291CBF00F00C000C2801D10020704770
:10209000012070478EE700000818014094020020DC
:1020A00070020020AC020020900200204848817895
:1020B00011F0030F03BF4748817811F01100012090
:1020C000704780B544480021017041800220FFF72D
:1020D000C1FE424900F047F80A0544BF21F40061FF
:1020E000016001BD38B53E4C2068010504D5FFF7FD
:1020F000DDFF08B9FFF7E5FF38490878012802BF7E
:10210000384A108800280FD1DFF8DC303AA21D7859
:10211000314852F8252042802368DA034CBF01225F
:10212000022202700520087031BD2948817811F023
:102130000C0F01BF2748408810F0600F10F001001D
:1021400000D00120704780B5284900200880012078
:10215000FFF780FE264900F006F8CA0444BF21F4C8
:102160008051016001BD087808B100220A701C4846
:102170000168704710B51A4C2068C10404D5FFF7F8
:10218000D4FF08B9FFF7DFFF19490878012802BF1B
:10219000184A108800280AD122684FF4FA605303C5
:1021A00058BF4FF63000114A10800520087010BD4E
:1021B00010B50B4C2068010548BFFFF793FF20685E
:1021C000C10402D5BDE81040D4E710BD00000000F6
:1021D000700200207C0200209C020020B00200203F
:1021E00090020020A802002010000020AE02002073
:1021F000B1020020AA02002000000000200300001D
:10220000B0040000D0070000C4090000B80B0000B3
:10221000002200F0E1BD00002DE9FC410646354DED
:102220003078C10750D5A8690024C10009D4A86935
:1022300040F08050A8610124A86900F0805000900F
:1022400000982D4F3868C10511D4386840F480706B
:102250003860FFF71DF980463868C10507D4FFF7DD
:1022600017F9A0EB08006528F6D303203FE0E869E2
:1022700010F440701EBF716801F44071884218D09C
:102280001E49E86901220A60002320F440700B60B7
:10229000E861C0070DD5FFF7FBF80746E86981073D
:1022A00007D4FFF7F5F8C01B41F289318842F5D316
:1022B000DBE7EA69706822F440720243EA611CB10C
:1022C000A86920F08050A8613078810705D52A6878
:1022D000B06822F4404202432A603178C80605D52E
:1022E0002968706921F48001014329600020BDE85C
:1022F000F681000004100240007000404004424299
:1023000062F30F2262F31F42401810F0030308D05B
:10231000C91A1FD3DB0748BF00F8012D28BF20F8DA
:10232000022D130030B414461546103928BF20E999
:102330003C00FAD8490728BF20E90C0048BF40F804
:10234000042D890028BF20F8022D48BF00F8012D78
:1023500030BC7047C91818BF00F8012DCB0728BF43
:1023600000F8012D704700000E4881B0016841F06F
:1023700001010160026802F00102009200994268C6
:1023800042F080524260406800F080500090009817
:102390000548016821F0E06141F00071016001B081
:1023A000704700BF1810024004000140F8B5044611
:1023B00000270026002C7AD004F12405686828B98B
:1023C0000021A96028702046FFF7CEF9204600F0D2
:1023D0007BF96968CA066BD4010069D1696821F488
:1023E000885141F0020169602368DFF8C012E26998
:1023F0008B4204BFB2F5402F4FF40022D4F804C042
:10240000217B42EA0C02D4F808C042EA4102BCF542
:10241000807F14BFBCF1010F4FF4807794F814C093
:10242000BCF1010F0FD131B9A169491E47EA41370B
:1024300047F4006707E0696841F020016960A96816
:1024400041F00101A960596821F469410F435F60BF
:102450002368DFF85C129F680F4017439F60A168F4
:10246000B1F5807F18BF012902D12669761E360595
:102470002168CB6A23F470031E43CE622468DFF820
:102480003412A3680B40934207D10022AA600121B5
:102490006A6861F301026A60F2BD686820F00200B8
:1024A00040F010006860A86840F00100A86003E0F8
:1024B000686840F0100068600120F2BD816801F496
:1024C0006021B1F5602F704770B50446206805683B
:1024D00001464E68B00623D5A90721D5A06AC106DA
:1024E00003D4A06A40F40070A0622068FFF7E6FF02
:1024F00004BF207B00280CD12168486820F0200010
:102500004860A06A20F48070A062A06AC10400F054
:1025100048F8204600F079FC21686FF0120008604E
:1025200030062ED569072CD5A06AC10603D4A06A4F
:1025300040F40050A0622168886800F4E040B0F5E3
:10254000E04F0BD04868420514D4886800F460203E
:10255000B0F5602F04BF207B00280BD1486820F025
:1025600080004860A06A20F48050A062A06AC10583
:1025700000F017F8204600F049FC21686FF00C00CD
:10258000086070060CD5E9070AD5A06A40F48030CF
:10259000A062204600F03BFC21686FF0010008605B
:1025A00070BD03D4A06A40F00100A0627047F8B586
:1025B000002300930A4600F1240300211C78012C1B
:1025C00001D10220F2BD01241C701F275468156838
:1025D0000668072C08D2641E04EB8404D6F834C0C5
:1025E00000F05EF8756312E00D2C08D2E41F04EBD6
:1025F0008404D6F830C000F053F8356307E00D3C92
:1026000004EB8404D6F82CC000F04AF8F5620727E2
:102610001668946805680A2E08D30A3E06EB46063B
:10262000D5F80CC000F036F8EC6006E006EB460684
:10263000D5F810C000F02EF82C611468102C18BFCB
:10264000112C23D100681D4CA0421AD11C480568EA
:102650002C021BD4056845F400050560106810289D
:1026600014D1154A174D1468B4FBF5F50A204543FB
:102670000095009800281EBF0098401E0090F8D1D9
:1026800004E00121586840F02000586000201870D4
:102690000846F2BDB7402CEA0707B4403C437047F8
:1026A000A7402CEA0707A5403D437047003C014086
:1026B000FDF7E1FFFE0E1FFF0C000020002401408B
:1026C0000824014040420F0038B504462068816864
:1026D000CA071BD58168490849008160FEF7D8FE0A
:1026E000054600F015F811D5FEF7D2FE401B032871
:1026F000F7D300F00DF8F4D5A16A41F01001A16202
:10270000E06A40F00100E062012032BD002032BDED
:1027100020688168C807704738B5040022D094F853
:10272000200010B92046FFF7A6F800F080F8054613
:1027300020684168C80705D4FEF7AAFE401B0B2895
:10274000F6D30DE000F06CF8FEF7A2FE0546206817
:102750004168880708D5FEF79BFE401B0B28F6D37F
:1027600000F056F8012032BD207E012806D12168F4
:1027700008680A4640F08000106005E020680168A3
:10278000024621F080011160607E00F03DF80CBF30
:1027900041F0400121F040010160A07E00F034F8DA
:1027A0000CBF41F0200121F020010160E07E00F02B
:1027B0002BF80CBF21F0100141F010010160207FC7
:1027C00000F022F80CBF41F0080121F0080101607F
:1027D000607F00F019F80CBF41F0040121F0040102
:1027E0000160A268E0682169024360690A43616888
:1027F00002432068491E0A43C26100216162012030
:1028000084F82000002032BD01282068016870474C
:10281000606A40F400306062052184F8201070473F
:1028200020680168024621F00201116070472068AB
:10283000016841F001010160FEF72ABEF0B590F891
:1028400020400568AD68012C18BF022C4FD115F04F
:10285000E05F48D0C5F301640125A5401D60240157
:102860000368CE6803F5C0758B681BB90B6846EA30
:10287000435603E04F6843EAC7031E432E510568E1
:102880000B6905F5C2763351097D012906D103682C
:1028900003F5C2710D5945F480750D519379D179C5
:1028A00055791B0443EA0163117943EA052305685E
:1028B00025440B43C5F88C319378D17855781B04A7
:1028C00043EA01631178026843EA052322440B437B
:1028D000C2F88831006800F5C070015941F001016B
:1028E00001510020F0BD416A41F4001102E0416A4B
:1028F00041F4802141620120F0BDF0B590F8204004
:10290000012C18BF022C72D10029046801D1E5689E
:1029100000E0256915F0030F03D1416A41F400116D
:1029200068E00D0104F5D876745914F0040494603D
:10293000066806F5D87603D17459640D146002E078
:102940007659F6085660046804F5D876775907F08A
:102950000207D760046804F5DA74665906F00F06BA
:10296000082E2EBF0824645904F00F041461046873
:1029700004F5DA767759C7F307249461046804F5FF
:10298000DA7677593F0C576102682A44D2F8B84189
:102990001C7006682E44D6F8B821120A5A700468D2
:1029A0002C44D4F8B821120C9A7004682C44D4F842
:1029B000B821120EDA7000F01EF81A7100F01BF840
:1029C000120A5A7100F017F8120C9A7100F013F8FD
:1029D000120EDA71006821B9C16841F02001C160AE
:1029E00003E0016941F0200101610020F0BD416A6E
:1029F00041F480217EE704682C44D4F8BC21704760
:102A00002DE9F84F05464FF0000828684669D0F8D0
:102A100004B08468D0F80C90D0F810A08769F10752
:102A200045D5E20713D501218160A00703D52846CB
:102A300000F0EEF90BE0600748BF4FF4006806D4E1
:102A400020074EBF4FF48058284600F0E2F9E00519
:102A500015D52A684FF48071A005916003D52846EA
:102A600000F0D8F90BE0600548BF48F4005806D4E0
:102A700020054EBF48F48048284600F0CCF9E0031A
:102A800015D52A684FF48031A003916003D52846FC
:102A900000F0C2F90BE0600348BF48F4004806D4D8
:102AA00020034EBF48F48038284600F0B6F93007BE
:102AB00048BF5FEAC96104D52968102048F400784E
:102AC000C860700748BF5FEA097105D508202A6809
:102AD000D060284600F0A2F9B00707D52968C86879
:102AE00010F0030F1CBF284600F099F9700648BF8C
:102AF0005FEACA6104D52968102048F4806808613B
:102B0000B00648BF5FEA0A7105D508202A6810613F
:102B1000284600F085F9F00607D52968086910F005
:102B2000030F1CBF284600F07CF9B00348BF5FEAE2
:102B3000CB6105D52A6810205060284600F072F954
:102B4000F00348BF5FEA0B7105D52A680820506082
:102B5000284600F068F9300440D55FEA4B713AD559
:102B6000F00503D5F90748BF48F00108B00503D5C3
:102B7000B90748BF48F00208700503D5790748BF78
:102B800048F00408300526D517F0700F23D007F061
:102B90007007102F0CD0202F0DD0302F0ED0402FCB
:102BA0000FD0502F10D0602F08BF48F480780DE070
:102BB00048F008080AE048F0100807E048F020084C
:102BC00004E048F0400801E048F080082868816986
:102BD00021F070018161042029684860B8F1000F7C
:102BE00009D0686A48EA0008C5F824802846BDE88C
:102BF000F24F00F019B9BDE8F18F0000F8B50400FC
:102C000025D004F13C05697821B9002028702046C0
:102C1000FEF7A8FE2421697020680268520852005D
:102C200002602068016841F4004101602068026888
:102C300022F400420260FEF7FAF901466068DFF80C
:102C4000F820904205D2DFF8F430994205D20120F5
:102C5000F2BDDFF8EC008142F9D32068DFF8E43000
:102C60004668B1FBF3F3B60943EA86164660266868
:102C7000376A6068904206D34FF4967043434FF42E
:102C80007A70B3FBF0F35B1CBF0943EA871333622E
:102C9000491E2368DE696768974206D27F0000F00C
:102CA00044F8042913D2042111E0A06820B907EBED
:102CB000470700F03AF805E01920474300F035F8DF
:102CC00041F4804108050CBF012141F40041DFF8C7
:102CD000780006400E43DE6122681368E169206ACD
:102CE00023F0C0030B43034313602268DFF85C004A
:102CF000936821690340E0680B43034393602168B4
:102D0000CA68A3696069120A034343EA0222CA60DF
:102D10002068016841F00101016000206860202105
:102D2000697020630021A970F2BDB1FBF7F1491C65
:102D3000C1F30B0170470000A186010080841E00D2
:102D400000093D0040420F000030FFFF007CFFFF04
:102D500070B500F13C031A78012A01D1022070BD40
:102D600001221A7002245C7005686E68AC680A68FB
:102D700026F0700616436E6002680E4882421CBF41
:102D80000E4DAA420BD0B2F1804F1CBF0C488242BC
:102D900005D0094DAA421CBF0A48824204D14868A6
:102DA00024F08004044394600121597000201870BD
:102DB00070BD0000002C01400008004000340140BC
:102DC00000040040000C0040704770477047704797
:102DD000704770477047000000B500BF130096466B
:102DE0009446103928BFA0E80C50FAD85FEA417C1D
:102DF00028BF0CC048BF40F8042BC90728BF20F8E3
:102E0000022B48BF00F8012B00BD70477047704788
:102E100070477047704770477047704770477047FA
:102E2000704770477047704770470000FEE7FEE745
:102E3000FEE7FEE7FEE770477047704700F0B0B866
:102E40004848FDF7C4BD4848FFF73EBB41E030B5F8
:102E500085B0464C464D0DF10B032A460021204615
:102E6000FFF74BFD4349A8680A88A0B9286840F2DB
:102E70000773984205D12869012824D142F4807251
:102E800007E0B0F5B07F04BF286908281BD142F4E1
:102E900000720A8017E06968B1F5807F02BF0428DC
:102EA000286908280FD134489DF80F10334A344B55
:102EB00001719DF81110817104212868106019704A
:102EC0000820304A10702046FFF79AFD05B030BD4B
:102ED00000BF2648FFF794BDFBE738B52A4C2B4AC4
:102EE00025686D1C0A201388B5FBF0F00A2101FB50
:102EF000105008B943F002031E20B5FBF0F01E216C
:102F000001FB105008B943F004036420B5FBF0F056
:102F1000642101FB105008B943F01003C820B5FB31
:102F2000F0F0C82101FB105008B943F020034FF422
:102F3000FA70B5FBF0F04FF4FA7101FB105008B9CC
:102F400043F04003138025601148BDE83240FEF78E
:102F5000FFBD1048FDF739B90F48FDF736B90F48E6
:102F6000FDF733B988010020CC0100202C0200209D
:102F700054020020A60200208802002098020020AF
:102F8000B2020020B3020020A0020020A402002010
:102F900068000020B0000020F80000204001002060
:102FA00002494A68087882184A6070470000002089
:102FB00030B4002512E050F8042BD30744BF4A4434
:102FC000521E091F042942F8045BFAD213468C07EB
:102FD00044BF15809B1CC90748BF1D7050F8041BD7
:102FE0000029E8D130BC704710B507497944183141
:102FF000064C7C44163404E00A68081D11448847D6
:103000000146A142F8D110BD0800000028000000D0
:10301000A1FFFFFFA4020000140000200000000038
:1030200077E0FFFF14000000840000000000002093
:103030000000000000F00DF8002801D0FFF7D4FFD9
:10304000AFF300800020AFF30080FEF739F800F006
:1030500002F80120704700F001B80000074638462A
:1030600000F002F8FBE7000080B5AFF30080024AF1
:1030700011001820ABBEFBE7260002000548014600
:1030800003B4684680F30988AFF30080AFF3008093
:10309000FFF7D0FFA5EDF5FE70470000000000002F
:1030A00000000000010203040607080901000000F7
:1030B00000000000100000000024F40001000000E7
:1030C0000148804701480047993000087D300008DA
:1030D0000000000001020304FFF7FEBFFFF7FEBF80
:1030E000FFF7FEBFFFF7FEBFFFF7FEBFFFF7FEBF14
:1030F000FFF7FEBFFFF7FEBFFFF7FEBFFFF7FEBF04
:10310000FFF7FEBFFFF7FEBFFFF7FEBFFFF7FEBFF3
:10311000FFF7FEBFFFF7FEBFFFF7FEBFFFF7FEBFE3
:10312000FFF7FEBFFFF7FEBFFFF7FEBFFFF7FEBFD3
:10313000FFF7FEBFFFF7FEBFFFF7FEBFFFF7FEBFC3
:10314000FFF7FEBFFFF7FEBFFFF7FEBFFFF7FEBFB3
:10315000FFF7FEBFFFF7FEBFFFF7FEBFFFF7FEBFA3
:10316000FFF7FEBFFFF7FEBFFFF7FEBFFFF7FEBF93
:10317000FFF7FEBFFFF7FEBFFFF7FEBFFFF7FEBF83
:10318000FFF7FEBFFFF7FEBFFFF7FEBFFFF7FEBF73
:10319000FFF7FEBFFFF7FEBFFFF7FEBFFFF7FEBF63
:040000050800307D42
:00000001FF
