:020000040800F2
:10000000E00600201934000801310008033100081F
:100010000531000807310008093100080000000020
:100020000000000000000000000000000B3100088C
:100030000D310008000000000F31000811310008E8
:100040003134000835340008393400083D340008E4
:100050004134000845340008493400084D34000894
:10006000513400085534000859340008153100088F
:100070005D34000861340008653400086934000804
:100080006D340008713400081B310008213100086C
:1000900023310008E9310008F13100087534000807
:1000A000793400087D340008813400088534000864
:1000B00089340008F33100088D34000891340008B9
:1000C00095340008993400089D340008A1340008D4
:1000D000A5340008973200089D320008A3320008BA
:1000E000A9340008AD340008B1340008B534000864
:1000F000B9340008BD340008C1340008C534000814
:10010000C9340008CD340008D1340008D5340008C3
:10011000D9340008DD340008E1340008E534000873
:10012000E9340008ED340008F1340008F534000823
:1001300038B5040022D094F8200010B9204600F011
:1001400024FB00F00BF9054620684168C80705D478
:1001500000F07AFB401B0B28F6D30DE000F0F7F817
:1001600000F072FB054620684168880708D500F05A
:100170006BFB401B0B28F6D300F0E1F8012032BDE9
:10018000207E012806D1216808680A4640F08000D8
:10019000106005E020680168024621F080011160CE
:1001A000607E00F03DF80CBF41F0400121F04001BD
:1001B0000160A07E00F034F80CBF41F0200121F076
:1001C00020010160E07E00F02BF80CBF21F010014F
:1001D00041F010010160207F00F022F80CBF41F0D7
:1001E000080121F008010160607F00F019F80CBFE0
:1001F00041F0040121F004010160A268E068216976
:10020000024360690A43616802432068491E0A4349
:10021000C26100216162012084F82000002032BD0B
:100220000128206801687047F0B5066890F8202022
:10023000012A18BF022A51D106F500720124106864
:1002400040F00100106006F511750B7DD06903F0D8
:100250001F0304FA03F3DC432040D06106F5107657
:10026000C86970B9D0682040D0604868CF6800F095
:1002700039F80F688868BFB247EA0047486945F80F
:100280003070C86901280ED1D0681843D060486822
:100290000F6800F027F8CE688868B6B246EA0046D4
:1002A000486945F830608869002850680CBF2040D4
:1002B0001843506008690028506907BF0440546122
:1002C00018435061086A012802D1D0690343D36101
:1002D00000201168490849001160F0BD416A41F4ED
:1002E00080219EE080B240EA07404F6946F837001F
:1002F000704738B5044694F82000012819D102212E
:1003000084F820102068026852085200026000F051
:100310009BFA054620684168C80707D500F094FAA3
:10032000401B0B28F6D300F00AF806E000206062BC
:1003300032BD606A40F400206062012032BD606A14
:1003400040F400306062052184F820107047206876
:100350000168024621F002011160704720680168BF
:1003600041F00101016000F06FBAF0B590F8204053
:100370000568AD68012C18BF022C4FD115F0E05F65
:1003800048D0C5F301640125A5401D602401036820
:10039000CE6803F5C0758B681BB90B6846EA4356F7
:1003A00003E04F6843EAC7031E432E5105680B69FB
:1003B00005F5C2763351097D012906D1036803F59D
:1003C000C2710D5945F480750D519379D1795579E4
:1003D0001B0443EA0163117943EA052305682544B8
:1003E0000B43C5F88C319378D17855781B0443EAD8
:1003F00001631178026843EA052322440B43C2F8E3
:100400008831006800F5C070015941F001010151C7
:100410000020F0BD416A41F4001102E0416A41F45C
:10042000802141620120F0BD416A41F48021416296
:1004300001207047F0B590F82040012C18BF022C25
:1004400072D10029046801D1E56800E0256915F042
:10045000030F03D1416A41F4001168E00D0104F576
:10046000D876745914F004049460066806F5D876BA
:1004700003D17459640D146002E07659F608566091
:10048000046804F5D876775907F00207D760046846
:1004900004F5DA74665906F00F06082E2EBF0824FC
:1004A000645904F00F041461046804F5DA7677598E
:1004B000C7F307249461046804F5DA7677593F0C92
:1004C000576102682A44D2F8B8411C7006682E446D
:1004D000D6F8B821120A5A7004682C44D4F8B8210E
:1004E000120C9A7004682C44D4F8B821120EDA70F9
:1004F00000F01EF81A7100F01BF8120A5A7100F091
:1005000017F8120C9A7100F013F8120EDA710068E5
:1005100021B9C16841F02001C16003E0016941F0E7
:10052000200101610020F0BD416A41F4802178E79B
:1005300004682C44D4F8BC21704790F82020012A8C
:1005400018BF022A03D100684269114300E06BE73B
:100550004161002070472DE9F84F05464FF0000833
:1005600028684669D0F804B08468D0F80C90D0F8B8
:1005700010A08769F10745D5E20713D501218160F5
:10058000A00703D5284600F065F90BE0600748BFD7
:100590004FF4006806D420074EBF4FF48058284619
:1005A00000F059F9E00515D52A684FF48071A005CF
:1005B000916003D5284600F04FF90BE0600548BF75
:1005C00048F4005806D420054EBF48F48048284619
:1005D00000F043F9E00315D52A684FF48031A003F9
:1005E000916003D5284600F039F90BE0600348BF5D
:1005F00048F4004806D420034EBF48F4803828460B
:1006000000F02DF9300748BF5FEAC96104D52968B9
:10061000102048F40078C860700748BF5FEA09718D
:1006200005D508202A68D060284600F019F9B007DF
:1006300007D52968C86810F0030F1CBF284600F0D2
:1006400010F9700648BF5FEACA6104D52968102016
:1006500048F480680861B00648BF5FEA0A7105D5B2
:1006600008202A681061284600F0FCF8F00607D53B
:100670002968086910F0030F1CBF284600F0F3F842
:10068000B00348BF5FEACB6105D52A6810205060EF
:10069000284600F0E9F8F00348BF5FEA0B7105D582
:1006A0002A6808205060284600F0DFF8300440D562
:1006B0005FEA4B713AD5F00503D5F90748BF48F01A
:1006C0000108B00503D5B90748BF48F00208700516
:1006D00003D5790748BF48F00408300526D517F040
:1006E000700F23D007F07007102F0CD0202F0DD0E3
:1006F000302F0ED0402F0FD0502F10D0602F08BFBA
:1007000048F480780DE048F008080AE048F0100846
:1007100007E048F0200804E048F0400801E048F015
:1007200080082868816921F07001816104202968AE
:100730004860B8F1000F09D0686A48EA0008C5F8B7
:1007400024802846BDE8F24F00F090B8BDE8F18F54
:1007500080B539483949016008224FF48001426070
:10076000416100234FF4003201218360C3600261C4
:10077000037641768376C1768383FFF7D9FC18B17F
:10078000BDE8014000F0EEB801BD18B585B00446E3
:1007900010220021684600F0E7F8216827488142CE
:1007A00048D12748274C416841F0007141604168B9
:1007B00001F0007104910499026842F004020260A1
:1007C0004FF40061006800F00400049000220498D7
:1007D0000091019202926946204600F0CFF84FF452
:1007E0008050022100900191032203926946204625
:1007F00000F0C4F800220F21132000F0DBF91320D1
:1008000000F0F5F900220F21142000F0D3F9142094
:1008100000F0EDF900220521152000F0CBF915209C
:1008200000F0E5F900220521162000F0C3F916209A
:1008300000F0DDF906B010BD3C020020006400406D
:10084000181002400008014001484068704700BF8E
:10085000000000207047704770477047704770472E
:1008600070477047704770477047704770470EE099
:1008700002684368024408305FEAC37C44BF4B44CB
:100880005B1E52F804CB43F804CB091FF9D150F892
:10089000041B0029ECD1704780B500F0D3F900F0BB
:1008A00021F800F0E1F900F09DFAFFF751FF00F0A8
:1008B000D3FA00F08FFB00F0E5FB00F0ABFA00F09C
:1008C000B1FA00F033FC00F02FFD054800F071FD97
:1008D00000F046FF01F088F801F063F9F8E7000046
:1008E0006800002000B595B0282105A801F086F920
:1008F0001421684601F082F918210FA801F07EF951
:100900004FF480310022069107920D91012005904D
:10091000099002224FF4E0110C920E9105A801F00B
:1009200071F908B100F01EF8022101910F204FF477
:100930008061009000220391029204920221684695
:1009400001F0EAFA08B172B6FEE702214FF4004264
:100950000F9111920FA801F0B5FB08B172B6FEE736
:1009600015B000BD72B6FEE710B5044610460A4643
:100970000146204601F01AFC204610BD2DE9F8473B
:100980004FF0000E00246F4A6F4BDFF8C0814FF02C
:100990000F0982460DE017683840106007E0C2F882
:1009A00004C04D68ED03F6D51068074317600EF1DB
:1009B000010E0F6837FA0EF000F0B680012000FA41
:1009C0000EFC0CEA07076745F1D1486838B30128E7
:1009D0001AD002281DD003282ED0112816D0122894
:1009E0001AD05B4DA8421CBF5A4DA84217D05A4D91
:1009F000A8421CBF594DA84211D0594DA8421CBF56
:100A0000584DA8420BD018E0CC6816E0CC68241DE5
:100A100013E0CC68083410E0CC680C340DE0886832
:100A200008B9042409E0012819BF0824CAF814C031
:100A30000824CAF810C000E00024B7F5807F03D274
:100A400050464FEA8E0C05E0AEF108050AF10400AD
:100A50004FEA850C056809FA0CF6B54304FA0CF662
:100A600046EA050CC0F800C04868C0009FD5D8F819
:100A7000000040F00100C8F80000D8F8005005F070
:100A8000010500954FEA8E0500984FEA9E0053F845
:100A9000206005F00C0C09FA0CF526EA0505324E2B
:100AA000B24508BF002618D0304EB24508BF012617
:100AB00013D02F4EB24508BF02260ED02D4EB245A0
:100AC00008BF032609D02C4EB24508BF042604D027
:100AD0002A4EB2450CBF0526062606FA0CF646EA53
:100AE000050C43F820C0F8434D68D2F808C0ED0269
:100AF0004CBF47EA0C0C00EA0C0CC2F808C04D6869
:100B0000D2F80CC0AD024CBF47EA0C0C00EA0C0C4A
:100B1000C2F80CC04D68D2F804C0AD034CBF47EA20
:100B20000C0C00EA0C0C3AE7BDE8F18702B90904A5
:100B300001617047C26801EA0203914341EA03413F
:100B40000161704700040140080001401810024094
:100B500000001110000012100000211000002210EF
:100B6000000031100000321000080140000C01406C
:100B7000001001400014014000180140001C014019
:100B80000901020002D4294881547047284B02F021
:100B90000F021A4402F8041C7047264B19684FF6DE
:100BA000FF020002114000F4E060084322490843BC
:100BB0001860704770B51F4B1C68C4F302230124F2
:100BC000C3F10705052D2EBF0F2504FA05F56D1E8F
:100BD0001E1D072E34BF0023DB1E2940994004FA56
:100BE00003F3BDE870405B1E1A401143C8E70100E3
:100BF00007D4012200F01F01104B8A40400943F83E
:100C00002020704710B5401EB0F1807F01D3012035
:100C100010BD0B4C60600F214FF0FF30FFF7B0FFAD
:100C20000021A16007202060002010BD00E400E04A
:100C300018ED00E00CED00E00000FA0500E100E036
:100C400010E000E080B50748016841F01001016044
:100C50000320FFF7A2FF0F2001F0DCFA01F0FAFAFF
:100C6000002002BD002002402DE9F84785B0102287
:100C700000216846FFF778FE4848494D0168494E13
:100C8000DFF82481DFF82491DFF824A141F040014E
:100C9000016048F2C004026802F04002049240F28F
:100CA00083370499026842F010020260036803F07F
:100CB000100304930499026842F00402026003687E
:100CC00003F0040304930499026842F008020260EE
:100CD000036803F0080304930499026842F02002B9
:100CE00002600022006800F0200004902146049871
:100CF0002846FFF71BFF00224FF44C713046FFF7E8
:100D000015FF002203214046FFF710FF002239465D
:100D10004846FFF70BFF00224FF4BC415046FFF757
:100D200005FF782000F059F8484600F043F80C2001
:100D300000F053F8304600F03DF800F03EF8009423
:100D400069462846FFF71AFE4FF44C7100F03CF854
:100D50003046FFF713FE032100F036F84046FFF758
:100D60000DFE009700F029F869464846FFF706FE99
:100D70004FF4BC4100F028F85046FFF7FFFD8020FB
:100D800000F02BF8504600F015F8702000F025F820
:100D9000404600F00FF806B0BDE8F087181002409A
:100DA0000008014000100140000C01400018014003
:100DB000001401406946FFF7E1BD012002210190C6
:100DC00000220391029270470091012201920021BA
:100DD000029102220392694670470021009001911E
:100DE0000291704780B50A48016841F00101016035
:100DF0000022006800F001000090002100980B2004
:100E0000FFF7D8FEBDE802400B20FFF7F0BE00BFA1
:100E10001410024080B56448644900F00BF800B13A
:100E200016E001BD80B56248624900F003F800B1E8
:100E30000EE001BD01604FF4E13200230C2142605D
:100E40008360C360036141618361C36101F024BABF
:100E5000BDE80140FFF786BD80B557485749FFF709
:100E6000E9FF00B1F4E701BD30B585B004461022BA
:100E700000216846FFF778FD21684C4A50489142AE
:100E80004FF4806427D101684E4D41F480410160E8
:100E9000026802F4804204920499026842F004025B
:100EA00002604FF40071006800F0040000F06CF87C
:100EB00028466946FFF762FD0021019102910094E6
:100EC00069462846FFF75AFD002206212520FFF734
:100ED00071FE252054E0374A914228D141683A4CAE
:100EE00041F400314160416801F4003104910499FA
:100EF000026842F0200202602021006800F0200019
:100F000000F042F820466946FFF738FD402000F027
:100F100043F82E48016841F0E06141F008010160AA
:100F2000002206212620FFF745FE262028E0234A3E
:100F3000914227D1416841F480214160416801F428
:100F4000802104910499026842F0080202600222A2
:100F5000036803F0080304930499009403210391A8
:100F6000019269461A4C2046FFF708FD4FF40060D5
:100F700000F012F8002206212720FFF71BFE272091
:100F8000FFF735FE05B030BD0490022204980091B1
:100F90000192032103917047002100900191029179
:100FA00020466946FFF7EABCB00000200038014047
:100FB000F8000020004400404001002000480040AC
:100FC00018100240000801400014014004000140D4
:100FD000000C0140254A2648264980B5426000237E
:100FE0004FF4804201608360C360026143618361AA
:100FF000C361036201F0EAFB18B1BDE80140FFF7ED
:10100000B1BC01BD18B585B004461022002101A86D
:10101000FFF7AAFC21681748814224D1164C2168A9
:1010200041F0080121604FF44071206800F0080091
:10103000009012220098114801910292032104911C
:1010400001A9FFF79BFC0E48016841F0E06141F007
:1010500002010160606840F400106060606800F4A4
:1010600000100090009806B010BD0000A08601009E
:10107000140000200054004018100240000C0140F1
:101080000400014010B586B01022002102A8FFF72D
:101090006BFC082200216846FFF766FC204C2148C3
:1010A0002060472140F2E7300022E0606160A260EA
:1010B0002261A261204600F06FF908B1FFF752FCEF
:1010C0004FF48050029002A9204600F06BFA08B15C
:1010D000FFF748FC0021009101912046694601F08C
:1010E0001FFC08B1FFF73EFC06B010BD00680D49BB
:1010F000884200D0704780B50B48026842F0020277
:1011000002600022006800F00200009003210098B5
:101110001D20FFF74FFDBDE802401D20FFF767BD12
:1011200068000020000400401C1002401FB50C2283
:1011300000216846FFF718FC3E4C3F4820604FF402
:101140008071A1600020012220754FF46021606051
:101150002273E1612261204601F01EFC08B1FFF715
:1011600001FC0B200121009001910291204669466B
:1011700001F013FD08B1FFF7F5FB1FBD30B585B0D9
:1011800004461022002101A8FFF7EEFB21682A483F
:1011900081424DD129482A4D016841F40071016016
:1011A000026802F4007200920099026842F0100294
:1011B0000260036803F010030093032300990268A0
:1011C00042F0040202600222006800F00400009075
:1011D00000990192029301A91A48FFF7CFFB3F2122
:1011E00001910322029201A91748FFF7C7FB174894
:1011F0002860002169608020E8604FF40071296157
:101200004FF40060002268612021AA60A961EA61B0
:10121000284601F077FD08B1FFF7A4FB25626C6258
:10122000002207211220FFF7C5FC1220FFF7DFFC88
:1012300005B030BD0C02002000240140181002400F
:101240008801002000100140000801400800024011
:10125000F8B54A4B4A491D684A4C0246012A4A4899
:1012600004D03FD3032A30D011D33BE02A065AD40E
:10127000464B1A88E27240F28713120A2273032542
:10128000002262730B600D61CA608A6042E02A0628
:1012900049D43F4B1A88E2720023120A2273E38179
:1012A000012262733B4B1A78012A08BFA27303D054
:1012B000022A04BF0122E27340F2233305220025F3
:1012C0000B600A61CD608D6024E02A062BD4FF23D9
:1012D000E37240F22312012500230A600D61CB6006
:1012E0008B6017E0AA0454BF45F4005525F400555F
:1012F0002A0A2273E5720326E27A667342F04002FC
:10130000E27240F23776032200270E600A61CF6056
:101310008F601D6004F13C0304F10B0201B0BDE8D5
:10132000F040FFF722B8F1BD10B516481121002298
:10133000C1728281442212498273082300220B6108
:101340008A60002340F23772CB600A600B7501217E
:1013500001634163436242618361C361036200F1DF
:101360001401094C2046FEF75FFF2046FEF7C1FF3F
:101370002046BDE810400221FFF7DFB8B40200208C
:1013800084020020CC0100203C020020D202002078
:10139000120000201000002038B5040001D1012007
:1013A00032BD00F057F818B900F05AF9FFF79EFE69
:1013B00032E090F83D10012901D001207047022150
:1013C00080F83D100168CA6842F00102CA600168F5
:1013D000DFF86C2091421CBFDFF8683099420ED0D4
:1013E000B1F1804F1CBFDFF86020914207D0DFF8D9
:1013F0005C3099421CBFDFF85820914205D18968C2
:1014000001F00701062905D001680A68084642F084
:10141000010202600020704702206870211D2068D0
:1014200000F022F90120A8720121A970E870297149
:101430006871A971E871297268726970002032BD03
:10144000002C01400034014000040040000800402E
:10145000000C004004F13C056878704710B5044664
:10146000206801698A0715D5C1688A0712D56FF00F
:101470000201016101222277806910F0030F2046EA
:1014800002D001F015FE03E001F013FE00F087F832
:1014900000202077206801694A0715D5C1684A07EE
:1014A00012D56FF00401016102222277806910F4E5
:1014B000407F204602D001F0FBFD03E001F0F9FD82
:1014C00000F06DF800202077206801690A0715D523
:1014D000C1680A0712D56FF0080101610422227762
:1014E000C06910F0030F204602D001F0E1FD03E0D7
:1014F00001F0DFFD00F053F800202077206801693B
:10150000CA0615D5C168CA0612D56FF0100101616F
:1015100008222277C06910F4407F204602D001F0F3
:10152000C7FD03E001F0C5FD00F039F80020207789
:1015300020680169CA0708D5C168CA0705D56FF0D8
:1015400001010161204601F0B5FD206801690A062C
:1015500008D5C1680A0605D56FF0800101612046F3
:1015600001F0A9FD206801694A0608D5C1684A064C
:1015700005D56FF040010161204601F09DFD206816
:1015800001698A060AD5C1688A0607D56FF020016D
:1015900001612046BDE8104001F08FBD10BD20461E
:1015A00001F08CBD70B5064606F13C050024287894
:1015B000012801D1022070BD0120287002226A702A
:1015C000DFF81801326893680340936008680200EE
:1015D00018BF102830D0202818BF30282CD0402821
:1015E00026D0502819D060281BD0702806D0B0F51E
:1015F000805F27D0B0F5005F07D022E000F02BF825
:101600003068816841F0770105E000F024F8306827
:10161000816841F48041816014E000F018F85021A5
:101620000BE0CA684968306800F073F8602104E094
:1016300000F00DF8402100E00146306800F07BF832
:1016400000E001240120687000F00AF870BDCA684B
:10165000496830684EE0CB684A688968306872E053
:101660000021297020467047F0B50368DFF870C08C
:101670001C4C1D4D1D4E1E4F604518BFB84208D072
:10168000B0F1804F18BFB04203D0A84218BFA042AB
:101690000DD14A6823F070031343604518BFB84268
:1016A00007D0B0F1804F1CBFB042A84201D0A04289
:1016B00003D1CA6823F4407313434A6923F08003BB
:1016C0001343036060458B68C3620A68826212BF7D
:1016D000B8420969016301224261F0BD8800FFFF41
:1016E000002C0140000C00400008004000040040B5
:1016F0000034014010B5036A046A6408640004629F
:1017000023F00A03846924F0F00444EA021484619B
:1017100023E010B5036A046A24F01004046223F085
:10172000A003846924F4704444EA0234846143EAE7
:101730000113036210BD826822F07002114341F070
:1017400007018160704710B5846824F47F44214309
:10175000114341EA0321816010BD1943016210BDAC
:1017600010B52C4C2078810748BF00F013F8207882
:10177000410748BF00F02EF821888A0603D54FF6AE
:10178000DF70014021802178480602D5BDE8104075
:101790002DE010BD1F490A884FF6FD7002401E481B
:1017A0000A800178491CCAB2032AA8BF002101702F
:1017B0000078012802D0022807D008E017490888DD
:1017C00008B1401E0880022002E0002000E0012055
:1017D000FFF73EBD1149088808B1401E08804FF64A
:1017E000FB700C490A88FFE702400A80704710B579
:1017F000074C02212046FFF79DF901212046FFF703
:1018000099F904490A884FF6BF7002400A8010BD5A
:1018100000180140C4020020D8020020CC020020A1
:101820002DE9F0418F48904E01689048904D6FEA45
:10183000D10414F00F040480376827F4403822D014
:10184000204600F0C5F8F0B1A9882C808C4214D154
:10185000E88800BB688827F4003747F48037844263
:1018600008BF47F4003737601E20824A6C80E8804A
:1018700064211180BDE8F0410FE03C20AC80E8809D
:10188000C6F8008007E0C6F8008000213C202980CF
:10189000A9806980E880BDE8F0812DE9F8437448AB
:1018A00000F090F8F1074FF001094FF0020805D55C
:1018B00000060FD469F30105012006E0B10707D542
:1018C000000607D468F30105022000F093F801E058
:1018D000AD08AD003868710705D500060FD469F36F
:1018E0008305042006E0310707D5000607D468F316
:1018F0008305082000F07EF801E025F00C055EE08D
:1019000038B5594A5C49136809885C4C23F4402077
:10191000D9B1A5882180A94212D1E088E0B96088B8
:1019200023F4002343F48023814208BF43F40023BF
:1019300064201360E0806180A180BDE831400CE04C
:10194000A1806421E180106031BD1060A180002081
:10195000208060806420E08031BD2DE9F843474855
:1019600000F030F8F1054FF001094FF0020805D5FD
:1019700000060FD469F34615012006E0B10507D52E
:10198000000607D468F34615022000F033F801E0A2
:1019900025F060053868F10705D500060FD469F316
:1019A000C815042006E0B10707D5000607D468F380
:1019B000C815082000F01EF801E025F4C075256068
:1019C000BDE8F183284C46882D4F2568386870475C
:1019D00000F0030103291CBF00F00C000C2801D10A
:1019E000002070470120704780B5FFF719FFBDE860
:1019F000014085E722490A68012806D0022807D05D
:101A0000042809D008280CD0704742F4803201E045
:101A100022F480320A600BE0900708D442F480225E
:101A200003E0500703D422F480220A600FE07047DD
:101A300010B5134801680A0502D4124C0A2323800A
:101A40000122114B1A7041F40061016010BD0C4875
:101A50000E4A016841F48051016001201070704706
:101A60000000000008180140B8020020D002002049
:101A70009C020020CC020020CE020020A802002000
:101A8000B4020020C8020020D4020020D5020020A9
:101A90004B48817811F0030F01D00120704749486D
:101AA000418811F4407018BF0120C0B2704780B562
:101AB00045480021017041800220FFF7C9FB4349DE
:101AC00000F04AF80A0544BF21F40061016001BD3D
:101AD00010B53F4C2068010504D5FFF7D9FF08B9C0
:101AE000FFF7E5FF39490878012802BF394A108815
:101AF00000280ED1DFF8D0003AA2437852F8232014
:101B000042802368DA034CBF0122022202700520C2
:101B1000087010BD2A48817811F00C0F02BF2948C7
:101B2000408810F0030F01D00120704710F480703E
:101B300018BF0120C0B2704780B527490020088037
:101B40000120FFF785FB254900F006F8CA0444BFD1
:101B500021F48051016001BD087808B100220A70AB
:101B60001B480168704710B5194C2068C10404D5A2
:101B7000FFF7D0FF08B9FFF7DFFF18490878012801
:101B800002BF174A108800280AD122684FF4FA6071
:101B9000530358BF4FF630000F4A108005200870DD
:101BA00010BD10B50A4C2068010548BFFFF790FF33
:101BB0002068C10402D5BDE81040D4E710BD000084
:101BC0009C020020A802002010000020D402002067
:101BD000B4020020C8020020D2020020D50200205A
:101BE000CA020020F4010000840300007805000010
:101BF000D0070000C4090000B80B0000002201F06B
:101C00005FBA00002DE9F843040016D02078DFF811
:101C10007064C10713D5706800F00C00042807D069
:101C2000706800F00C00082841D17068C1033ED5EF
:101C30003068810303D56068002800F06481207853
:101C4000DFF84C74810719D5706810F00C0F07D0BD
:101C5000706800F00C00082861D17068C1035ED480
:101C60003068810703D52069012840F04C81316834
:101C7000606921F0F80141EAC0013160217808076C
:101C800040F18180A069DFF80C14002800F0A680E4
:101C900001220A60FEF7D8FD0546706A810763D409
:101CA000FEF7D2FD401B0228F7D903202EE1606821
:101CB000B0F5803F04D1306840F48030306014E0EB
:101CC00008B930680AE0B0F5A02F306806D140F4BA
:101CD00080203060316841F4803105E020F48030AC
:101CE0003060316821F480213160606858B1FEF7BE
:101CF000ABFD054630688103A1D4FEF7A5FD401B6E
:101D00006528F7D3D1E7FEF79FFD054630688103CC
:101D100095D5FEF799FD401B6528F7D3C5E72069E7
:101D2000A8B101213960FEF78FFD054630688107B3
:101D300005D4FEF789FD401B0228F7D9B5E73068C6
:101D4000616920F0F80040EAC100306096E7386031
:101D5000FEF77AFD0546316888078FD5FEF774FDDA
:101D6000401B0228F7D9A0E7DFF818030168C9086B
:101D70004FF47A72B1FBF2F2009200BF0098411E5C
:101D800000280091F9D1207841076ED5F06900252F
:101D9000C10009D4F06940F08050F0610125F0697C
:101DA00000F0805000900098DFF8EC82D8F8000036
:101DB000C10520D4D8F8000040F48070C8F80000B5
:101DC000FEF742FD8146D8F80000C10513D4FEF7A6
:101DD0003BFDA0EB09006528F5D366E70860FEF738
:101DE00033FD0546706A8107CDD5FEF72DFD401BFA
:101DF0000228F7D959E7E068012808D008B9306A05
:101E000009E00528306A06D140F004003062306AEB
:101E100040F0010005E0400840003062306A20F0E8
:101E20000400306241F28938E06860B1FEF70CFDD1
:101E30008146306A810713D4FEF706FDA0EB090046
:101E40004045F6D331E7FEF7FFFC8146306A810753
:101E500006D5FEF7F9FCA0EB09004045F6D324E7D0
:101E60001DB1F06920F08050F061E06900284CD08D
:101E7000716801F00C01082938D002282AD100F03D
:101E800047F805463068810105D5FEF7DDFC401BAB
:101E90000228F7D909E7206AB0F5803F05D17168BB
:101EA000A06821F40031014371607268206A616AA0
:101EB00022F4741202430A437260012000F029F8F0
:101EC00004463068810120D4FEF7BEFC001B0228C6
:101ED000F7D9EAE600F01CF804463068810114D511
:101EE000FEF7B2FC001B0228F7D9DEE601280AD073
:101EF0007068226A00F48031914202BF00F47010D1
:101F0000616A884201D0012000E00020BDE8F28330
:101F100000203866FEF798BC2DE9F04104008846A1
:101F20004ED05E4E00F077F802D200F06FF847D145
:101F30002068534D810712D5400703D5696841F4E5
:101F4000E06169602078010703D5686840F460505B
:101F500068606968A06821F0F00101436960217838
:101F6000C80725D56068012802D129688A0303E0E3
:101F70000228296802D18A0102D421E08A071FD5EC
:101F80006968890840EA81006860FEF75DFC0746E1
:101F90006868616800F00C00B0EB810F08D0FEF7B4
:101FA00053FCC01B41F289318842F1D303202BE05E
:101FB000306800F00700804504D200F027F801D017
:101FC000012021E02078410705D56A68E06822F405
:101FD000E06202436A602178080706D569682069D3
:101FE00021F4605141EAC001696000F019F86A68A3
:101FF0002B49244BC2F30312895CC8401860234864
:10200000006800F007F90020BDE8F0813168C908D8
:1020100048EAC1013160306800F007004045704770
:10202000204919480A6802F00C03082B00D07047B9
:1020300010B500BF1EA4C2F38343D203E35C08D5EE
:10204000096858431EA3C1F340415A5CB0FBF2F04B
:1020500010BD18461449484310BD0A48114A00688B
:1020600013681249C3F3022206E006480D4A0068CD
:1020700013680E49C3F3C222895CC8407047000050
:10208000001002400C00002000127A00080000201E
:1020900000004242800442420070004000200240A2
:1020A000F43300080410024000093D002834000801
:1020B00002030405060708090A0B0C0D0E0F101089
:1020C000010200002DE9FC410646354D3078C1077C
:1020D00050D5A8690024C10009D4A86940F08050F7
:1020E000A8610124A86900F08050009000982D4F4D
:1020F0003868C10511D4386840F480703860FEF744
:10210000A3FB80463868C10507D4FEF79DFBA0EB12
:1021100008006528F6D303203FE0E86910F440701A
:102120001EBF716801F44071884218D01E49E869E9
:1021300001220A60002320F440700B60E861C007B0
:102140000DD5FEF781FB0746E869810707D4FEF746
:102150007BFBC01B41F289318842F5D3DBE7EA699A
:10216000706822F440720243EA611CB1A86920F051
:102170008050A8613078810705D52A68B06822F4BC
:10218000404202432A603178C80605D52968706943
:1021900021F48001014329600020BDE8F6810000A0
:1021A00004100240007000404004424262F30F22DB
:1021B00062F31F42401810F0030308D0C91A1FD35E
:1021C000DB0748BF00F8012D28BF20F8022D1300BF
:1021D00030B414461546103928BF20E93C00FAD81F
:1021E000490728BF20E90C0048BF40F8042D8900AA
:1021F00028BF20F8022D48BF00F8012D30BC7047E1
:10220000C91818BF00F8012DCB0728BF00F8012D11
:102210007047000038B50D4D0D4B2A7804464FF439
:102220007A711868B1FBF2F2B0FBF2F0FEF7EAFC4B
:1022300050B9102C08D2002221464FF0FF30FEF793
:10224000B9FCAC60002032BD012032BD000000208E
:102250000C0000200E4881B0016841F001010160CE
:10226000026802F0010200920099426842F0805236
:102270004260406800F08050009000980548016876
:1022800021F0E06141F00071016001B0704700BFD2
:10229000181002400400014038B5040001D10120AB
:1022A00032BD00F01BF808B900F01CF800F01FF870
:1022B00000F027F8FFE7416100F001F832BD206827
:1022C000C16841F40051C16000206860202169703C
:1022D0002020A870002161630020704704F14005B0
:1022E00068787047002129702046FEF7BDBD242084
:1022F00068702068C16821F40051C160204600F078
:1023000023BA2068016921F4904101612068416984
:1023100021F02A017047216801F1140252E8001FE0
:10232000206800F1140321F0400143E80010002868
:102330007047F8B5044625682A6828460146C668ED
:102340004B6912F00F0F02F0200106F0200007D1B8
:10235000002918BF00285DD02046BDE8F2408BE17F
:10236000DF0702D416F4907F54D0D50705D5F605C3
:1023700003D5656C45F001056564550705D5DE0795
:1023800003D5656C45F002056564950705D5DE0744
:1023900003D5656C45F004056564120706D508B9D8
:1023A000DA0703D5636C43F008036364626C002AA8
:1023B0002FD000291EBF0028204600F05DF92068BC
:1023C0004069616C0A0701D440061DD5204600F023
:1023D0002FF920684169480611D5FFF79CFFFCD111
:1023E000E06B60B10FF281214163E06B00F0F1FC22
:1023F00000280ED0E06B416BBDE8F4400847204652
:10240000BDE8F24000F075BE204600F072FE0020EC
:102410006064F1BD206B012804F1410340F091801C
:10242000D00600D5F10640F18C8000220092296888
:102430000091226850680090009920684269500617
:1024400042D5E16B0868406880B20028E1D0A28DD7
:102450009042DEDAE085886920282DD0216801F1DC
:102460000C0050E8001F226802F10C0521F4807175
:1024700045E800100028F1D100F0A2F8490800F169
:102480001405490045E800100028F5D100F098F83F
:1024900000F1140521F0400145E800100028F5D1B5
:1024A000202058700021216300F090F800F0ACF873
:1024B000FAD1E06B00F068FC02206063A18DE08D32
:1024C000091A89B2204638E0A08DE18D411AE08DCD
:1024D00000281CBF88B2002871D02246106800F185
:1024E0000C0454E8004F00F10C0624F4907446E804
:1024F00000400028F2D1106800F1140454E8004FA5
:10250000640800F11406640046E800400028F2D197
:102510002020587000231363106800F10C0353E867
:10252000003F00F10C0523F0100345E800300028BF
:10253000F2D10220506389B21046BDE8F44000F0A9
:10254000D9BD10062BD5310629D51878212836D1CA
:10255000A068B0F5805F04BF2069002809D1206A17
:1025600001882A46C1F308015160206A811C21625A
:1025700005E0206A411C2162226800785060E08CEE
:10258000401EE08480B2D0B92068C16821F080018B
:10259000C1602068C16841F04001C160F1BD5006D2
:1025A0000DD571060BD52846C16821F04001C160E8
:1025B000204620211970BDE8F24000F09CBDF1BD1D
:1025C000206800F1140151E8001F7047206800F1F5
:1025D0000C0151E8001F00F10C037047026802F182
:1025E0000C0151E8002F036803F10C0470470168E7
:1025F00001F1140252E8002F520801F114045200B4
:1026000044E800210029704721F0100143E8001040
:102610000028704742F0400244E80021002970473A
:10262000016801F10C0252E8002F01F10C0470471F
:1026300010B5FFF7F5FF22F49072FFF7EDFFF8D128
:10264000FFF7D5FFFCD1016B012906D1FFF7C6FFCB
:1026500022F01002FFF7E0FFF8D1202180F84210AD
:102660000022026310BD0000406A0021C1850022E3
:10267000C28400F03EBD00001CB590F84210222933
:1026800052D18168826AB1F5805F0AD1016969B966
:1026900003685968C1F308011180826A911C816244
:1026A0000FE0002904BF0169002902D103685968BD
:1026B00003E00168496801F07F011170816A4A1CDA
:1026C0008262C18D491EC18589B259BB0168CA6841
:1026D00022F02002CA600168CA6822F48072CA60CF
:1026E00001684A69520852004A61202180F842106C
:1026F00000224263016B012912D1026300F016F837
:1027000002681168CB0607D5002400941268009275
:10271000036859680091009A818D00F0EBFC01E09C
:1027200000F0EAFC002016BD022016BD016801F190
:102730000C0252E8002F01F10C0422F0100244E8D0
:1027400000210029F2D1704710B5044622681169B2
:10275000E06821F4405101431161D3681949A06830
:102760000B402169034360690B430343D360516904
:10277000A06921F440710143516113498A4202D199
:10278000FFF773FC01E0FFF768FC6268192148431A
:102790009200B0FBF2F16423B1FBF3F26FF063003F
:1027A00000FB021109013231B1FBF3F000F0F0013E
:1027B00001EB0211226800F00F004018906010BD7C
:1027C00000000000F3E9FFFF00380140F8B5040005
:1027D00025D004F13C05697821B9002028702046F5
:1027E000FEF710FC2421697020680268520852002C
:1027F00002602068016841F40041016020680268BD
:1028000022F400420260FFF728FC01466068DFF80E
:10281000F820904205D2DFF8F430994205D2012029
:10282000F2BDDFF8EC008142F9D32068DFF8E43034
:102830004668B1FBF3F3B60943EA8616466026689C
:10284000376A6068904206D34FF4967043434FF462
:102850007A70B3FBF0F35B1CBF0943EA8713336262
:10286000491E2368DE696768974206D27F0000F040
:1028700044F8042913D2042111E0A06820B907EB21
:10288000470700F03AF805E01920474300F035F813
:1028900041F4804108050CBF012141F40041DFF8FB
:1028A000780006400E43DE6122681368E169206A01
:1028B00023F0C0030B43034313602268DFF85C007E
:1028C000936821690340E0680B43034393602168E8
:1028D000CA68A3696069120A034343EA0222CA6014
:1028E0002068016841F0010101600020686020213A
:1028F000697020630021A970F2BDB1FBF7F1491C9A
:10290000C1F30B0170470000A186010080841E0006
:1029100000093D0040420F000030FFFF007CFFFF38
:1029200070B500F13C031A78012A01D1022070BD74
:1029300001221A7002245C7005686E68AC680A682F
:1029400026F0700616436E6002680E4882421CBF75
:102950000E4DAA420BD0B2F1804F1CBF0C488242F0
:1029600005D0094DAA421CBF0A48824204D14868DA
:1029700024F08004044394600121597000201870F1
:1029800070BD0000002C01400008004000340140F0
:1029900000040040000C0040F8B504460027002663
:1029A000002C7AD004F12405686828B90021A960B8
:1029B00028702046FEF7E2FB204600F07BF96968AC
:1029C000CA066BD4010069D1696821F4885141F0CD
:1029D000020169602368DFF8C012E2698B4204BF1C
:1029E000B2F5402F4FF40022D4F804C0217B42EA14
:1029F0000C02D4F808C042EA4102BCF5807F14BF43
:102A0000BCF1010F4FF4807794F814C0BCF1010FB2
:102A10000FD131B9A169491E47EA413747F4006730
:102A200007E0696841F020016960A96841F001018F
:102A3000A960596821F469410F435F602368DFF89A
:102A40005C129F680F4017439F60A168B1F5807FBB
:102A500018BF012902D12669761E36052168CB6A86
:102A600023F470031E43CE622468DFF83412A36897
:102A70000B40934207D10022AA6001216A6861F3EA
:102A800001026A60F2BD686820F0020040F01000A8
:102A90006860A86840F00100A86003E0686840F042
:102AA000100068600120F2BD816801F46021B1F579
:102AB000602F704770B504462068056801464E686F
:102AC000B00623D5A90721D5A06AC10603D4A06A00
:102AD00040F40070A0622068FFF7E6FF04BF207B8F
:102AE00000280CD12168486820F020004860A06AC6
:102AF00020F48070A062A06AC10400F048F820466B
:102B000000F0FBFA21686FF01200086030062ED545
:102B100069072CD5A06AC10603D4A06A40F400500E
:102B2000A0622168886800F4E040B0F5E04F0BD067
:102B30004868420514D4886800F46020B0F5602F1E
:102B400004BF207B00280BD1486820F0800048603B
:102B5000A06A20F48050A062A06AC10500F017F8B6
:102B6000204600F0CBFA21686FF00C000860700678
:102B70000CD5E9070AD5A06A40F48030A06220464F
:102B800000F0BDFA21686FF00100086070BD03D449
:102B9000A06A40F00100A0627047F8B500230093DE
:102BA0000A4600F1240300211C78012C01D10220E7
:102BB000F2BD01241C701F27546815680668072C95
:102BC00008D2641E04EB8404D6F834C000F05EF82A
:102BD000756312E00D2C08D2E41F04EB8404D6F8D0
:102BE00030C000F053F8356307E00D3C04EB84047B
:102BF000D6F82CC000F04AF8F562072716689468EA
:102C000005680A2E08D30A3E06EB4606D5F80CC026
:102C100000F036F8EC6006E006EB4606D5F810C08A
:102C200000F02EF82C611468102C18BF112C23D141
:102C300000681D4CA0421AD11C4805682C021BD408
:102C4000056845F4000505601068102814D1154A80
:102C5000174D1468B4FBF5F50A204543009500981C
:102C600000281EBF0098401E0090F8D104E001210A
:102C7000586840F020005860002018700846F2BDE7
:102C8000B7402CEA0707B4403C437047A7402CEA02
:102C90000707A5403D437047003C0140FDF7E1FFB9
:102CA000FE0E1FFF0C0000200024014008240140FC
:102CB00040420F0038B5044620688168CA071BD51A
:102CC0008168490849008160FDF7BEFD054600F0B6
:102CD00015F811D5FDF7B8FD401B0328F7D300F018
:102CE0000DF8F4D5A16A41F01001A162E06A40F04C
:102CF0000100E062012032BD002032BD2068816801
:102D0000C807704730B508B9012030BD0268DFF848
:102D10005C43A24200F138030BD2DFF854138A1847
:102D20001425B2FBF5F29200DFF848439A605C602C
:102D30000AE0DFF844138A181424B2FBF4F292007C
:102D4000DFF838139A605960022280F82120016868
:102D50000C684168826805686FF30D140C43C16804
:102D6000144302690C434169144382690C43C169ED
:102D700014430C432C6000221A60012380F8213098
:102D800080F82020002030BD10B590F821100229D5
:102D900000F1380206D004231360002180F82010CF
:102DA000012010BD01680B6823F00E030B600123A6
:102DB00001680C68640864000C60916852688B407C
:102DC0005360012180F82110002280F8202000208B
:102DD00010BDF8B590F821200024022A00F134013A
:102DE00003D00420486001245FE00268DFF89062AD
:102DF000136823F00E0313604FF4807702681568A0
:102E00006D086D0015604FF480320368B3424FF4D3
:102E1000805519D9DFF85462B34208BF012210D09F
:102E2000DFF86062B34208BF10220AD0DFF85862B0
:102E3000B34208BF3A4604D0DFF85072BB4208BF25
:102E40002A46DFF84C3227E0DFF848C263451CD041
:102E5000DFF844E273451AD0DFF840C2634518D06A
:102E6000DFF83C72BB420EBF2A46DFF83852AB4255
:102E700010D0DFF83472BB4208BF4FF4801209D083
:102E8000B34207D14FF0807204E0012202E0102229
:102E900000E03A46DFF814321A60012280F821205F
:102EA00080F82040096801B188472046F2BD2DE92D
:102EB000F84F00F1280204275169714E0B6804682D
:102EC000DFF8D0B125689169DFF8C4C1DFF8BCE153
:102ED000DFF8B481DFF8AC91DFF890A18DF8001035
:102EE0009DF800108F403B424AD0690748D52368BF
:102EF000990603D4236823F0040323604FF480234E
:102F00000168B1424FF480444FF4806511D95145B6
:102F100008BF04230AD0494508BF402306D04145D5
:102F200008BF2B4602D0714508BF2346CCF80030BD
:102F300020E0594517D0584FB94216D0574FB942E3
:102F400015D0574DA9420EBF2346564CA1420FD073
:102F5000554DA94208BF4FF4800309D0B14207D1B3
:102F60004FF0806304E0042302E0402300E02B469E
:102F70004E490B605168002976D0BDE8F44F0847F0
:102F80009DF8001002278F403B424FD0A9074DD536
:102F90002368990606D4236823F00A0323600121DD
:102FA00080F821104FF400330168B1424FF400540F
:102FB0004FF4007511D9514508BF02230AD0494585
:102FC00008BF202306D0414508BF2B4602D07145DB
:102FD00008BF2346CCF8003020E0594517D02E4FCB
:102FE000B94216D02D4FB94215D02D4DA9420EBF72
:102FF00023462C4CA1420FD02B4DA94208BF4FF4C1
:10300000001309D0B14207D14FF0007304E002234E
:1030100002E0202300E02B4624490B60002380F8C7
:103020002030116801B3BDE8F44F08479DF8001047
:1030300008268E40334217D0290715D5236823F080
:103040000E0323600124916953698C405C60012167
:103050001161012380F82130002180F8201091684F
:1030600011B1BDE8F44F0847BDE8F18F08040240F4
:10307000F8FFFDBF00000240F8FBFDBF0004024066
:10308000800002401C04024030040240440402401C
:1030900004040240080002401C00024030000240CC
:1030A00044000240580002406C000240040002400C
:1030B000704770477047704770477047704700000F
:1030C00000B500BF130096469446103928BFA0E80B
:1030D0000C50FAD85FEA417C28BF0CC048BF40F8CA
:1030E000042BC90728BF20F8022B48BF00F8012B8A
:1030F00000BD704770477047704770477047704712
:10310000FEE7FEE7FEE7FEE7FEE770477047704721
:1031100000F0F2B86448FFF7CABE6448FFF7CABCC3
:1031200063E030B585B0624C624D0DF10B032A1D92
:1031300000212046FDF77EF95F49E8680A88A0B9BA
:10314000686840F20773984205D16869012846D142
:1031500042F4807207E0B0F5B07F04BF68690828C8
:103160003DD142F400720A8039E0A968B1F5807F50
:1031700002BF04286869082831D19DF80E001E2876
:10318000B8BF002016DBA0F11E01322938BF012094
:1031900010D3A0F15001282938BF02200AD3A0F192
:1031A0007801282938BF032004D3A0383C2834BF35
:1031B000042005204149424A424B08709DF81110F5
:1031C0009DF80F0028800902698008433E49088065
:1031D000042168681060197008203C4A107020466D
:1031E000FDF7B9F905B030BD00BF3148FDF7B3B9FF
:1031F000FBE738B5364C374A25686D1C0A20138822
:10320000B5FBF0F00A2101FB105008B943F00203AE
:103210001E20B5FBF0F01E2101FB105008B943F051
:1032200004036420B5FBF0F0642101FB105008B9E1
:1032300043F01003C820B5FBF0F0C82101FB10508B
:1032400008B943F020034FF4FA70B5FBF0F04FF4E7
:10325000FA7101FB105008B943F040031380256058
:103260001D48FEF7FBF81D49C88808B1401EC880FC
:103270001B4AD18801B1491E1A4B188808B1401E5B
:103280001880194B188808B1401E188088B200B108
:10329000491ED18031BD1548FFF74BB81448FFF7E0
:1032A00048B81448FFF745B8880100200C020020F8
:1032B0003C02002064020020C60200201100002011
:1032C000BC020020D6020020CE020020D70200203F
:1032D000C0020020C4020020680000209C020020E0
:1032E000A8020020C8020020CA020020B00000206E
:1032F000F80000204001002002494A68087882183E
:103300004A6070470000002030B4002512E050F8F9
:10331000042BD30744BF4A44521E091F042942F814
:10332000045BFAD213468C0744BF15809B1CC90767
:1033300048BF1D7050F8041B0029E8D130BC70470D
:1033400010B5074979441831064C7C44163404E022
:103350000A68081D114488470146A142F8D110BDF2
:103360000800000028000000A1FFFFFFC8020000C5
:103370001400002000000000F7D4FFFF140000003C
:1033800084000000000000200000000000F00DF8A4
:10339000002801D0FFF7D4FFAFF300800020AFF387
:1033A0000080FDF779FA00F002F80120704700F084
:1033B00001B800000746384600F002F8FBE70000BD
:1033C00080B5AFF30080024A11001820ABBEFBE7C6
:1033D000260002000548014603B4684680F30988C8
:1033E000AFF30080AFF30080FFF7D0FFA5EDF5FE4F
:1033F000704700000000000000000000010203040C
:10340000060708090100000000000000100000008D
:103410000024F400000100000148804701480047F3
:10342000F1330008D5330008000000000102030456
:10343000FFF7FEBFFFF7FEBFFFF7FEBFFFF7FEBFC0
:10344000FFF7FEBFFFF7FEBFFFF7FEBFFFF7FEBFB0
:10345000FFF7FEBFFFF7FEBFFFF7FEBFFFF7FEBFA0
:10346000FFF7FEBFFFF7FEBFFFF7FEBFFFF7FEBF90
:10347000FFF7FEBFFFF7FEBFFFF7FEBFFFF7FEBF80
:10348000FFF7FEBFFFF7FEBFFFF7FEBFFFF7FEBF70
:10349000FFF7FEBFFFF7FEBFFFF7FEBFFFF7FEBF60
:1034A000FFF7FEBFFFF7FEBFFFF7FEBFFFF7FEBF50
:1034B000FFF7FEBFFFF7FEBFFFF7FEBFFFF7FEBF40
:1034C000FFF7FEBFFFF7FEBFFFF7FEBFFFF7FEBF30
:1034D000FFF7FEBFFFF7FEBFFFF7FEBFFFF7FEBF20
:1034E000FFF7FEBFFFF7FEBFFFF7FEBFFFF7FEBF10
:0834F000FFF7FEBFFFF7FEBF6E
:04000005080033D5E7
:00000001FF
